:100000000C9453000C9408010C9408010C94080102
:100010000C9408010C9408010C9408010C9408013C
:100020000C9408010C9408010C9408010C9408012C
:100030000C9408010C9408010C9408010C9408011C
:100040000C9408010C9408010C9408010C9408010C
:100050000C9408010C9408010C94EC000C94080119
:100060000C9408010C9408010C9408010C940801EC
:100070000C9408010C9408010C9408010C940801DC
:100080000C9408010C9408010C9408010C940801CC
:100090000C9408010C9408010C9408010C940801BC
:1000A00028002802800011241FBECFEFCDBFDFE360
:1000B000DEBFE0EAF0E040E017C0B591A5913591D0
:1000C0002591059107FD0CC095918591EF01F92FC0
:1000D000E82F05900D92A217B307D9F7FE0104C0CF
:1000E0001D92A217B307E1F7E53AF40731F70E9432
:0A00F0007D000C947B00F894FFCF14
:1000FA000E94AD000E94CE00E0E8F4E080858160B5
:10010A008087E0E5F0E08081897F8083789481E0D0
:10011A0080930806A0E0BAE04CED50E02FEF30E003
:10012A0080910028909101288C3B924028F4DC961B
:10013A002D933C93DD9704C0DC964D935C93DD9739
:10014A00808181608083889580818E7F8083E8CFDB
:10015A00E0E8F4E08089887F808B80898460808BE6
:10016A008089877F808BE0E0F6E081E0828380836C
:10017A0088E08683808182608083A0EAB0E08C91E7
:10018A0080628C9382858160828781858160818784
:02019A000895C6
:10019C00E0EEF5E084818160848384E08093210427
:1001AC00E0E0FAE087E080838181836081838FEFD8
:1001BC009FE086AB97AB8CED90E084AF95AF8181DF
:0C01CC00806481838081816080830895BD
:1001D8001F920F920FB60F9211248F939F93EF9354
:1001E800FF93E0E0F6E0808991898093002890935E
:1001F800012881E08387FF91EF919F918F910F9064
:080208000FBE0F901F90189526
:040210000C9400004A
:00000001FF
